:0300000002029366
:0C029300787FE4F6D8FD7581200202DAC5
:080003001205A312000080FBAE
:0605BA00040C000000002B
:10031F00E4F50BF50AF509F5081205EBE4F58AF596
:10032F008C1205F73097FDD28C2097FDC28CAF8CC5
:10033F00E48F0BF50AF509F508AE0AAD09AC08789C
:10034F000812025A8F0B8E0A8D098C08AF8AE50BA3
:10035F004FF50BE50AF50AE509F509E508F508AFCC
:10036F000BAE0AAD09FC12018D7B047AE7798C780C
:0F037F003C12000E8F0F8E0E8D0D8C0C0201CBD9
:0805F700D2961205FFC2962204
:0C05EB005389F0438901E4F58AF58C2265
:0505FF00007F07DFFE94
:0106040022D3
:0605C0000114000115000A
:1005A3005389F0438901758AF6758CFFD2A9D2AFBE
:0705B300C2B9C28DD28C22F7
:10055100300013D290C291D292E514D39518500372
:10056100D29022C29022D290D291C292E514D39518
:09057100185003D29022C290221E
:10057A00300113D295D293C294E515D3951950033D
:10058A00D29522C29522D295C293D294E515D395DB
:09059A00195003D29522C29522EA
:05060500C290C2952225
:03000B00020526C5
:10052600C0E0C0D0C28C758AF6758CFF051405151F
:10053600E514C394644003751400E515C394644040
:0B05460003751500D28CD0D0D0E0323D
:100438001205A3E4F516C296C297E580540FF51786
:1004480012026D048400047501047702047F03041A
:100458007204048406048107047008047A0C047C7E
:100468000E04840F00000487800A020488800A02B0
:1004780004C1800002038E80000203E41205CB222F
:1005CB00D20075181E120551D20175191E02057A3B
:1005DB00D200751814120551D20175191402057A3F
:10038E00751601E516604EE580540F60051205DB0B
:10039E0080F5E580540FFFBF0403D38001C34012E4
:1003AE00C200751832120551D20175193212057A32
:1003BE0080E0E580540F7003D38001C34012C20069
:1003CE00751832120551D20175193212057A80E272
:0603DE00E4F51680AE22DA
:1003E400751601E5166049E580540F60051205DBBA
:1003F40080F5E580540FFFBF0203D38001C3401290
:10040400D200751832120551C20175193212057ADB
:1004140080E0E580540F7003D38001C340C5D2004F
:10042400751832120551C20175193212057A80E22B
:04043400E4F51622B3
:10048800751601D296E516602FE580540FFFBF0858
:100498000302038EC20075181E120551D201751988
:1004A8002D12057AE580540FF51724FC7005751692
:0904B8000180D2E4F51680CD228A
:1004C100751601D297E516602FE580540FFFBF0125
:1004D1000302038ED20075182D120551C201751940
:1004E1001E12057AE580540FF51724FE7005751666
:0904F1000180D2E4F51680CD2251
:0405C600021000001F
:1004FA0012031FEC12018D8F0F8E0E8D0D8C0CE4E2
:10050A00FFFE7DA07C41AB0FAA0EA90DA80C12011B
:0C051A0014600250067510037511E822F1
:10000E00EC4D6011E8497017ED33EC3304600DE4EC
:10001E00FCFFFEFD22E933E8330470F802023712CA
:10002E00020258046009E4CC2481500628500902CB
:10003E00024128400302023EC0E0EB4A7044B98000
:10004E0006D0E0FB02022DEF4E701CBD8008EBFFC8
:10005E00EAFEE9FD80EBE98DF0A4FEE5F00200F783
:10006E00E9CDF9EAFEEBFFEF89F0A4FCE5F0CE89CD
:10007E00F0A42EFFE435F0CD89F0A42DFEE435F08A
:10008E008067EF4E7005BD80D780C3EF8BF0A4ACB8
:10009E00F0EE8BF0A42CFCE435F0F8EF8AF0A42CF3
:1000AE00E5F038FCE433CB8DF0A42CFCE5F03BF806
:1000BE00EE8AF0A42CFCE5F038F8E433CF89F0A4F6
:1000CE002CFCE5F038CF3400CE89F0A42FFFE5F0FC
:1000DE003EFEE433C98DF0A42EFEE5F039CD8AF054
:1000EE00A42FFFE5F03EFEE43DFD33D0E0FB5007CC
:1000FE000BBB000F020241EC2CFCEF33FFEE33FE84
:06010E00ED33FD020219B1
:1001140074F8CC6480CCC86480C8F58204604FC392
:10012400EB9FF5F0EA9E42F0E99D42F0E89C45F031
:10013400603C501DE5825FFFE582D313CB5BCBF4BB
:100144002B5582FB50280ABA002409B900200880E4
:100154001DE5825BFBE582D313CF5FCFF4C3132F7E
:100164005582FF50090EBE00050DBD00010CC3EB06
:100174009FF5F0EA9E42F0E99D42F0E89C45F0606C
:0901840007CC4820E701B3EC228E
:10018D0075F020800E75F010800575F0087D007EED
:10019D00007F003392D530D50312024CEC33401062
:1001AD00EF33FFEE33FEED33FDEC33FCD5F0ED22F6
:0E01BD00E5F0247EA2D513CC92E7CDCEFF2232
:1001CB00EDD2E7CD33EC3392D524814006E4FFFE2C
:1001DB00FDFC22FCE4CFCECDCC24E0501174FF808B
:1001EB00EDC3CC13CCCD13CDCE13CECF13CF047028
:0701FB00F030D5DE02024CDA
:10020200E9D2E7C933E833F892D5EDD2E7CD33EC42
:0702120033FC5002B2D522BB
:10021900EC30E7100FBF000C0EBE00080DBD000446
:100229000BEB6014A2D5EB13FCED92E7FD2274FFF2
:10023900FCFDFEFF22E480F8A2D574FF13FC7D804B
:03024900E480EF5F
:10029F00020003E493A3F8E493A34003F68001F272
:1002AF0008DFF48029E493A3F85407240CC8C33360
:1002BF00C4540F4420C8834004F456800146F6DF2F
:1002CF00E4800B01020408102040809005BAE47E00
:1002DF00019360BCA3FF543F30E509541FFEE49324
:1002EF00A360010ECF54C025E060A840B8E493A3EB
:1002FF00FAE493A3F8E493A3C8C582C8CAC583CA16
:10030F00F0A3C8C582C8CAC583CADFE9DEE780BECD
:0105CA000030
:0E024C00C3E49FFFE49EFEE49DFDE49CFC22C3
:10025A00E8600FEFC333FFEE33FEED33FDEC33FC02
:03026A00D8F122A6
:10026D00D083D082F8E4937012740193700DA3A320
:10027D0093F8740193F5828883E473740293686034
:06028D00EFA3A3A380DF34
:00000001FF
