:0300000002000EED
:0C000E00787FE4F6D8FD758120020055D3
:1002B60012029FD200750C1E120227D200750C1E68
:0502C60012025080EE61
:06000300010800010900E4
:10029F005389F0438901758AF6758CFFD2A9D2AFC5
:0702AF00C2B9C28DD28C22FE
:10022700300013D290C291D292E508D3950C5003B7
:10023700D29022C29022D290D291C292E508D39551
:090247000C5003D29022C2902257
:10025000300013D295D293C294E509D3950C500384
:10026000D29522C29522D295C293D294E509D39514
:090270000C5003D29522C2952224
:0502EB00C290C2952243
:03000B000201FCF3
:1001FC00C0E0C0D0C28C758AF6758CFF0508050965
:10020C00E508C394644003750800E509C394644091
:0B021C0003750900D28CD0D0D0E03276
:1001440012029FE4F50AE580540FF50B12027901BF
:100154008C00017D01017F02018703017A04018C77
:100164000601890701780801820C01840E018C0FB5
:100174000000018F800A020190800A0201C68000FB
:0C01840002009A80000200F01202CB2260
:1002CB00D200750C1E120227D200750C1E020250B2
:1002DB00D200750C14120227D200750C14020250B6
:10009A00750A01E50A604EE580540F60051202DB1D
:1000AA0080F5E580540FFFBF0403D38001C34012DB
:1000BA00C200750C32120227D200750C321202509D
:1000CA0080E0E580540F7003D38001C34012C20060
:1000DA00750C32120227D200750C3212025080E2DD
:0600EA00E4F50A80AE22DD
:1000F000750A01E50A6049E580540F60051202DBCC
:1001000080F5E580540FFFBF0203D38001C3401286
:10011000D200750C32120227C200750C3212025046
:1001200080E0E580540F7003D38001C340C5D20046
:10013000750C32120227C200750C3212025080E296
:04014000E4F50A22B6
:100190008029E50A602FE580540FFFBF08030200A5
:1001A0009AC200750C1E120227D200750C2D120285
:1001B00050E580540FF50B24FC7005750A0180D2C0
:0601C000E4F50A80CD22E7
:1001C6008029E50A602FE580540FFFBF0103020076
:1001D6009AD200750C2D120227C200750C1E12024F
:1001E60050E580540FF50B24FE7005750A0180D288
:0601F600E4F50A80CD22B1
:10001A000202B6E493A3F8E493A34003F68001F244
:10002A0008DFF48029E493A3F85407240CC8C333E7
:10003A00C4540F4420C8834004F456800146F6DFB6
:10004A00E4800B0102040810204080900003E47E43
:10005A00019360BCA3FF543F30E509541FFEE493AB
:10006A00A360010ECF54C025E060A840B8E493A372
:10007A00FAE493A3F8E493A3C8C582C8CAC583CA9D
:10008A00F0A3C8C582C8CAC583CADFE9DEE780BE55
:0100090000F6
:10027900D083D082F8E4937012740193700DA3A314
:1002890093F8740193F5828883E473740293686028
:06029900EFA3A3A380DF28
:00000001FF
