:0300000002000EED
:0C000E00787FE4F6D8FD758120020055D3
:0700030012026420B3FA228F
:0B0252001201FB12000312009A80FB57
:06025D0001080001090088
:1001FB005389F0438901758AF6758CFFD2A9D2AF6A
:07020B00C2B9C28DD28C22A2
:1001A900300013D2A0C2A1D2A2E508D3950B500307
:1001B900D2A022C2A022D2A0D2A1C2A2E508D39580
:0901C9000B5003D2A022C2A022B7
:1001D200300013D2A5D2A3C2A4E509D3950B5003D4
:1001E200D2A522C2A522D2A5C2A3D2A4E509D39543
:0901F2000B5003D2A522C2A52284
:05026400C2A0C2A522AA
:03000B0002017679
:10017600C0E0C0D0C28C758AF6758CFF05080509EB
:10018600C3E5089464748094804003750800C3E551
:10019600099464748094804003750900D28CD0D091
:0301A600D0E03274
:10009A00E590540FF50AB4100050549000ACF828BB
:1000AA0028730200F00200E60200E30200EA0200FE
:1000BA00E00200F30200F00200EE0200DE0200F9A4
:1000CA000200F60200F90200E80200F90200EC025E
:1000DA0000F080128016020232020242800B800C6B
:1000EA008007800880030202120201381200FA22F5
:10021200D200750B231201A9D200750B230201D261
:10022200D200750B141201A9D200750B140201D26F
:1000FA00E590540F600512022280F5E590540464DD
:10010A00046012C200750B321201A9D200750B32BB
:10011A001201D280E6E590540F6012C200750B32CC
:0E012A001201A9D200750B321201D280E82218
:10013800E590540F600512022280F5E590540264A0
:10014800026012D200750B321201A9C200750B327F
:100158001201D280E6E590540F6012D200750B327E
:0E0168001201A9C200750B321201D280E822EA
:10023200C200750B231201A9D200750B370201D23D
:10024200D200750B371201A9C200750B230201D22D
:10001A00020252E493A3F8E493A34003F68001F2A8
:10002A0008DFF48029E493A3F85407240CC8C333E7
:10003A00C4540F4420C8834004F456800146F6DFB6
:10004A00E4800B010204081020408090025DE47EE7
:10005A00019360BCA3FF543F30E509541FFEE493AB
:10006A00A360010ECF54C025E060A840B8E493A372
:10007A00FAE493A3F8E493A3C8C582C8CAC583CA9D
:10008A00F0A3C8C582C8CAC583CADFE9DEE780BE55
:01026300009A
:00000001FF
