:03000000020D8A64
:0C0D8A00787FE4F6D8FD758138020DD1A9
:10116600517569657400547261636B696E670044FA
:10117600697374616E63653A00636D00556E6963E9
:051186005472616300DA
:0D12BA00121293E4F51CF51D1211CE80F602
:101229001212F67BFF7A117966E4F526FDFF120C9E
:0C1239002CE51D6401451C70F80212F643
:10126100D200752132121114D20075213212113DB2
:0B127100E51D6401451C70E80212F648
:1011CE001212F67BFF7A11796CE4F526FDFF120CF4
:0F11DE002C120F87E51D6401451C70F50212F6F7
:100F42001212F67BFF7A117975E4F526FDFF120C79
:100F52002C120E8D85340D85330C85320B85310AAA
:100F6200750E017D037F28120A4E7BFF7A11797F6D
:100F7200E4F5267D037F64120C2CE51D6401451CFB
:050F820070CF0212F621
:10118B001212F67BFF7A117982E4F526FDFF120C21
:10119B002C120E16E51D6401451C70F5F537F5385C
:0311AB000212F637
:03130000020EF7E3
:1000260000000000000000000000000000000000CA
:1000360000000000000000000000000000000000BA
:10004600000000000000000000F8000000000000B2
:1000560000333000000000100C06100C06000000F3
:1000660000000000000040C07840C0784000043F17
:1000760004043F040400007088FC083000000018E7
:1000860020FF211E0000F008F000E018000000210B
:100096001C031E211E0000F00888700000001E21AF
:1000A60023241927211010160E000000000000005E
:1000B600000000000000000000E01804020000003C
:1000C60000071820400000020418E000000000406D
:1000D600201807000000404080F0804040000202E7
:1000E600010F01020200000000F000000000010103
:1000F600011F01010100000000000000000080B0A7
:100106007000000000000000000000000000000178
:1001160001010101010100000000000000000030A3
:10012600300000000000000000008060180400603D
:1001360018060100000000E010080810E000000F9B
:10014600102020100F00001010F800000000002002
:10015600203F20200000007008080888700000304A
:1001660028242221300000300888884830000018F2
:10017600202020110E000000C02010F8000000070B
:100186000424243F240000F8088888080800001981
:10019600212020110E0000E0108888180000000FB2
:1001A600112020110E0000380808C8380800000089
:1001B600003F000000000070880808887000001CDE
:1001C600222121221C0000E010080810E000000097
:1001D600312222110F00000000C0C0000000000004
:1001E6000030300000000000008000000000000029
:1001F6008060000000000000804020100800000120
:1002060002040810200040404040404040000404E2
:1002160004040404040000081020408000000020AC
:10022600100804020100007048080808F0000000E9
:10023600003036010000C030C828E810E00007187A
:10024600272423140B000000C038E0000000203CE7
:1002560023020227382008F8888888700000203F8B
:10026600202020110E00C0300808080838000718A2
:1002760020202010080008F808080810E000203F99
:10028600202020100F0008F88888E8081000203F7A
:1002960020202320180008F88888E8081000203F4E
:1002A600200003000000C0300808083800000718C6
:1002B6002020221E020008F808000008F808203F47
:1002C600210101213F20000808F80808000000204D
:1002D600203F2020000000000808F8080800C08021
:1002E60080807F00000008F888C028180800203F9A
:1002F60020012638200008F8080000000000203FF2
:1003060020202020300008F8F800F8F80800203FE8
:10031600003F003F200008F830C00008F808203FE2
:10032600200007183F00E01008080810E0000F1032
:10033600202020100F0008F808080808F000203FC9
:10034600210101010000E01008080810E0000F1864
:10035600242438504F0008F8888888887000203F89
:100366002000030C30200070880808083800003888
:10037600202121221C00180808F80808180000008F
:10038600203F2000000008F808000008F808001FB9
:10039600202020201F000878880000C838080000A8
:1003A60007380E010000F80800F80008F800033CC2
:1003B6000700073C0300081868808068180820308A
:1003C6002C03032C30200838C800C8380800000069
:1003D600203F2000000010080808C8380800203810
:1003E600262120201800000000FE02020200000064
:1003F600007F40404000000C30C0000000000000BC
:1004060000010638C00000020202FE0000000040A3
:1004160040407F00000000000402020204000000C9
:1004260000000000000000000000000000008080C6
:1004360080808080808000020204000000000000AE
:10044600000000000000000080808080000000198D
:10045600242222223F2008F8008080000000003F6E
:10046600112020110E000000008080800000000E88
:10047600112020201100000000808088F800000E66
:10048600112020103F200000808080800000001F87
:10049600222222221300008080F0888888180020FB
:1004A600203F202000000000808080808000006BBC
:1004B60094949493600008F8008080800000203FA8
:1004C600210000203F2000809898000000000020B6
:1004D600203F20200000000000809898000000C007
:1004E6008080807F000008F8000080808000203F28
:1004F60024022D302000000808F80000000000202B
:10050600203F202000008080808080808000203F67
:1005160020003F20003F8080008080800000203F38
:10052600210000203F200000808080800000001F06
:10053600202020201F00808000808000000080FF97
:10054600A12020110E000000008080808000000E97
:10055600112020A0FF8080808000808080002020E5
:100566003F21200001000000808080808000003351
:10057600242424241900008080E0808000000000EC
:10058600001F202000008080000000808000001FE7
:10059600202020103F208080800000808080000185
:1005A6000E300806010080800080008080800F30B9
:1005B6000C030C300F00008080008080800000203B
:1005C600312E0E3120008080800000808080808166
:1005D6008E701806010000808080808080000021D7
:1005E600302C2221300000000000807C0202000036
:1005F6000000003F404000000000FF000000000037
:100606000000FF0000000002027C800000000040A5
:10061600403F000000000006010102020404000041
:06062600000000000000CE
:0912DE00D2A6D2A7C2A6C2A72223
:0912E700C2A6C2A7D2A6D2A7221A
:10103900E4FEEEC39408748094805015EF30E70401
:10104900D2A68002C2A6D2A7C2A7EF25E0FF0E80D2
:0E105900E1D2A6D2A77F017E001212D3C2A759
:011067002266
:0711ED00F583E493652AFF7E
:1011F4008F2B1212DE7F781210397F40121039AF14
:071204002B1210390212E762
:10127C008F2C1212DE7F78121039E4FF121039AF66
:07128C002C1210390212E7D9
:1011AE008F2BED24B0FF12127CE52B54F0C4540F9C
:1011BE004410FF12127CE52B540F4401FF02127CE7
:020FC8008F2177
:100FCA00E4F522C3E522940874809480502DE5222A
:100FDA0024B0FF12127C7F0112127C7F1012127C45
:100FEA00E4F523C3E5239480748094805009AF21EB
:0B0FFA001211F4052380EC052280C8D2
:0110050022C8
:0512F600E4FF020FC837
:100CE800C2927F647E0012120BD2927FAE12127CE7
:100CF800E4FF12127C7F1012127C7F4012127C7F5C
:100D08008112127C7FC412127C7FA112127C7FC8D0
:100D180012127C7FA612127C7FA812127C7F3F12CF
:100D2800127C7FD312127CE4FF12127C7FD5121240
:100D38007C7F8012127C7FD912127C7FF112127C88
:100D48007FDA12127C7F1212127C7FDB12127C7FF8
:100D58004012127C7F2012127C7F0212127C7F8D3F
:100D680012127C7F1412127C7FA412127C7FA612AE
:100D7800127C7FAF12127CE4FF120FC8E4FDFF0261
:020D880011AEAA
:0A0C2C008F218D228B238A24892555
:100C3600E4F527F528F529E5267004F52A800375DD
:100C46002AFFAB23AA24A9258529827583001209C8
:100C5600737003020CE724E0F527D3E5219478743A
:100C66008094804005E4F5210522AD22AF211211C2
:100C7600AEE4F528C3E52894087480948050207566
:100C8600F010E527A42528F582E435F0F583E58202
:100C9600243CF582E58334001211ED052880D5E564
:100CA6002204FDAF211211AEE4F528C3E52894080D
:100CB60074809480502075F010E527A42528F582CD
:100CC600E435F0F583E5822444F582E583340012A9
:100CD60011ED052880D574082521F5210529020C7A
:010CE60048C5
:010CE70022EA
:040A4E008F088D0977
:100A5200E4F51675132EFFFEFDFCAB0DAA0CA90BD7
:100A6200A80A12082A5018AF0DAE0CAD0BAC0A1230
:100A720008A38F0D8E0C8D0B8C0A750F2D800375BC
:100A82000F20AF0DAE0CAD0BAC0A1208F28E178F11
:100A920018E4FFFE7DC87C42AB0DAA0CA90BA80A84
:100AA200120724C004C005C006C007AE17AF187CE9
:100AB200007D641209A0AC06AD07E41208B9A804CF
:100AC200A905AA06AB07D007D006D005D0041206A6
:100AD2002F1208F2AB07AE17AF187C007D0A12097D
:100AE200B2ED2430F512AE17AF187C007D0A120960
:100AF200B28E178F187C007D0A1209B2ED2430F5F0
:100B020011AE17AF187C007D0A1209B28E178F182A
:100B1200EF2430F510EB75F00A84E5F02430F5157A
:100B2200EB75F00A842430F5147F01EFC39403744B
:100B3200809480500D740F2FF8E6B4300576200FA4
:100B420080E9E50E1470107B007A00790FE4F52637
:070B5200AD09AF08120C2CE5
:010B59002279
:0B12D300EF1FAC0670011E4C70F622ED
:10120B00D3EF9400EE940040147D6E7C00ED1D70C6
:0D121B00011CED4C70F7EF1F70E61E80E324
:0112280022A3
:061245000431000000006E
:100E8D00E4F530F52FF52EF52D1212C712000330B3
:100E9D00A1FDD28E20A1FDC28EAF8DE48F30F52F36
:100EAD00F52EF52DAE2FAD2EAC2D7808120A158F1F
:100EBD00308E2F8D2E8C2DAF8BE5304FF530E52FED
:100ECD00F52FE52EF52EE52DF52DAF30AE2FAD2EF0
:100EDD00FC1208B47B047AE7798C783C1207248FD6
:0A0EED00348E338D328C310208F28E
:08000300D2A01212F0C2A022EB
:0C12C70053890F438910E4F58BF58D224C
:0512F000007F07DFFE96
:0112F50022D6
:0B124B00021C000002190000011B73D0
:10000E0075985075C83475CAD975CBFFD2AFD2ACBE
:03001E00D2BC222F
:100EF700E51B249E601624F6601E24FA6029146000
:100F070036240D7035D2007521328011C20075214B
:100F170032121114C200800AD20075211412111462
:100F2700D200752132800DD200752132121114D2F0
:0B0F37000075211402113D1212FB2274
:03002300020B5A73
:0F0B5A00C0E0C083C082C0D075D000C000C0070B
:100B6900C298AF99EF120A280B96300B9E310BA64B
:100B7900320BAE330BB6340BBE350BDD620BCC66D4
:100B89000BEE6C0BFF720C107300000C1F75190033
:100B9900751A008026751900751A01801E751900CD
:100BA900751A028016751900751A03800E751900D9
:100BB900751A048006751900751A05751C00751DCE
:100BC900018053751900751A05751C00751D00758E
:100BD9001B668042751900751A05751C00751D0084
:100BE900751B628031751900751A05751C00751D14
:100BF90000751B6C8020751900751A05751C007528
:100C09001D00751B72800F751900751A05751C007A
:060C1900751D00751B7340
:0D0C1F00D007D000D0D0D082D083D0E032FA
:06125600011E00011F0053
:101293005389F0438901758AF6758CFFD2A9D2AFC1
:0712A300C2B9C28DD28C22FA
:10111400300013D290C291D292E51ED39521500390
:10112400D29022C29022D290D291C292E51ED3953F
:09113400215003D29022C2902246
:10113D00300013D295D293C294E51FD3952150035D
:10114D00D29522C29522D295C293D294E51FD39502
:09115D00215003D29522C2952213
:0512FB00C290C2952223
:03000B00021006DA
:10100600C0E0C0D0C28C758AF6758CFF051E051F20
:10101600C3E51E9464748094804003751E00C3E586
:101026001F9464748094804003751F00D28CD0D0C6
:03103600D0E032D5
:100F8700E4F535E580540FF536120A280FC4000F33
:100F9700C4010FC4030FC4040FC4050FBB070FB868
:100FA7000B0FC40C0FBE0D0FC10E0FC40F00000FA7
:100FB700C70210680210BE0210E90210931212AAAB
:010FC7002207
:1012AA00D200752119121114D20075211902113DAB
:10106800801EE5356024C200752114121114D200C7
:1010780075211412113DE580540FF53624F57005DD
:0B10880075350180DDE4F53580D822CD
:10109300801EE5356024D200752114121114C2009C
:1010A30075211412113DE580540FF53624F27005B5
:0B10B30075350180DDE4F53580D822A2
:1010BE00801EE5356024C20075210F121114D20076
:1010CE0075211912113DE580540FF53624F970057E
:0B10DE0075350180DDE4F53580D82277
:1010E900801EE5356024D200752119121114C20041
:1010F90075210F12113DE580540FF53624F3700563
:0B11090075350180DDE4F53580D8224B
:04125C000237000055
:100E1600E53845377023120F87120E8DE4FFFE7DED
:100E2600A07C41AB34AA33A932A83112082A600249
:100E3600505475374E75382022C3E5389410E5377F
:100E4600648094A74019D200752114121114D2009F
:100E560075215012113DE5381538702A153722C311
:100E6600E537648094804019D20075215012111420
:100E7600D20075211412113DE53815387008153762
:070E860022E4F537F53822E4
:10062C0002095EE86480F8E933E83360110460F095
:10063C00ED33EC337009E8FCE9FDEAFEEBFF220434
:10064C0060DED3EB9FEA9EE99DE8C2E78CF0C2F72F
:10065C0095F0400CE8CCF8E9CDF9EACEFAEBCFFBFB
:10066C0012092985D0F05804700320D5B3E8047022
:10067C00075002B2D502096892D5EC0460F7E4CCBD
:10068C00C0E0C398F8603B94186008400DD0E0FBC4
:10069C00020940E4FBFAC9FC8028E830E406E4C90E
:1006AC00FBE4CAFCE830E305E4C9CACBFCE8540718
:1006BC006010F8C3E913F9EA13FAEB13FBEC13FC23
:1006CC00D8F130F52FC3E49CFCEF9BFFEE9AFEEDC6
:1006DC0099FDD0E0FBEF4E4D4C701222DB0302096A
:1006EC0065EC2CFCEF33FFEE33FEED33FDED30E724
:1006FC00EB020940EF2BFFEE3AFEED39FDD0E0FBAB
:10070C0050130BBB0003020968ED13FDEE13FEEF53
:08071C0013FFEC13FC0209407D
:10072400EC4D6011E8497017ED33EC3304600DE4CF
:10073400FCFFFEFD22E933E8330470F802095E127F
:10074400092958046009E4CC248150062850090280
:100754000968284003020965C0E0EB4A7044B98087
:1007640006D0E0FB020954EF4E701CBD8008EBFF7D
:10077400EAFEE9FD80EBE98DF0A4FEE5F002080D48
:10078400E9CDF9EAFEEBFFEF89F0A4FCE5F0CE89B0
:10079400F0A42EFFE435F0CD89F0A42DFEE435F06D
:1007A4008067EF4E7005BD80D780C3EF8BF0A4AC9B
:1007B400F0EE8BF0A42CFCE435F0F8EF8AF0A42CD6
:1007C400E5F038FCE433CB8DF0A42CFCE5F03BF8E9
:1007D400EE8AF0A42CFCE5F038F8E433CF89F0A4D9
:1007E4002CFCE5F038CF3400CE89F0A42FFFE5F0DF
:1007F4003EFEE433C98DF0A42EFEE5F039CD8AF037
:10080400A42FFFE5F03EFEE43DFD33D0E0FB5007AE
:100814000BBB000F020968EC2CFCEF33FFEE33FE38
:06082400ED33FD02094066
:10082A0074F8CC6480CCC86480C8F58204604FC375
:10083A00EB9FF5F0EA9E42F0E99D42F0E89C45F014
:10084A00603C501DE5825FFFE582D313CB5BCBF49E
:10085A002B5582FB50280ABA002409B900200880C7
:10086A001DE5825BFBE582D313CF5FCFF4C3132F61
:10087A005582FF50090EBE00050DBD00010CC3EBE9
:10088A009FF5F0EA9E42F0E99D42F0E89C45F0604F
:09089A0007CC4820E701B3EC2271
:1008A300ED33EC33600A047003BD8004ECB2E7FC63
:0108B3002222
:1008B40075F020800E75F010800575F0087D007EBF
:1008C400007F003392D530D503120A07EC33401071
:1008D400EF33FFEE33FEED33FDEC33FCD5F0ED22C8
:0E08E400E5F0247EA2D513CC92E7CDCEFF2204
:1008F200EDD2E7CD33EC3392D524814006E4FFFEFE
:10090200FDFC22FCE4CFCECDCC24E0501174FF805C
:10091200EDC3CC13CCCD13CDCE13CECF13CF0470F9
:07092200F030D5DE020A07E8
:10092900E9D2E7C933E833F892D5EDD2E7CD33EC14
:0709390033FC5002B2D5228D
:10094000EC30E7100FBF000C0EBE00080DBD000418
:100950000BEB6014A2D5EB13FCED92E7FD2274FFC4
:10096000FCFDFEFF22E480F8A2D574FF13FC7D801D
:03097000E480EF31
:100D96000212BAE493A3F8E493A34003F68001F2A7
:100DA60008DFF48029E493A3F85407240CC8C3335E
:100DB600C4540F4420C8834004F456800146F6DF2D
:100DC600E4800B0102040810204080901245E47E66
:100DD600019360BCA3FF543F30E509541FFEE49322
:100DE600A360010ECF54C025E060A840B8E493A3E9
:100DF600FAE493A3F8E493A3C8C582C8CAC583CA14
:100E0600F0A3C8C582C8CAC583CADFE9DEE780BECB
:01126000008D
:10097300BB010CE58229F582E5833AF583E0225039
:1009830006E92582F8E622BBFE06E92582F8E22283
:0D099300E58229F582E5833AF583E493229D
:1009A000EF8DF0A4A8F0CF8CF0A428CE8DF0A42E6B
:0209B000FE2225
:1009B200BC000BBE0029EF8DF084FFADF022E4CC29
:1009C200F875F008EF2FFFEE33FEEC33FCEE9DECF2
:1009D200984005FCEE9DFE0FD5F0E9E4CEFD22ED38
:1009E200F8F5F0EE8420D21CFEADF075F008EF2F82
:1009F200FFED33FD4007985006D5F0F222C398FD73
:050A02000FD5F0EA220F
:0E0A0700C3E49FFFE49EFEE49DFDE49CFC2200
:100A1500E8600FEFC333FFEE33FEED33FDEC33FC3F
:030A2500D8F122E3
:100A2800D083D082F8E4937012740193700DA3A35D
:100A380093F8740193F5828883E473740293686071
:060A4800EFA3A3A380DF71
:00000001FF
